:020000040000FA
:100000000C9462000C948A000C948A000C948A0070
:100010000C948A000C948A000C948A000C948A0038
:100020000C948A000C948A000C948A000C94490366
:100030000C948A000C948A000C948A000C948A0018
:100040000C94FF020C948A000C94CD020C94A7022D
:100050000C948A000C948A000C948A000C948A00F8
:100060000C948A000C948A000000000024002700F1
:100070002A0000000000250028002B0000000008D6
:10008000000201000003040700000000000000005F
:1000900000000000230026002900040404040404D6
:1000A0000404020202020202030303030303010227
:1000B00004081020408001020408102001020408F6
:1000C00010204A0411241FBECFEFD8E0DEBFCDBF01
:1000D00011E0A0E0B1E0E2EEF0E102C005900D9287
:1000E000AE32B107D9F722E0AEE2B1E001C01D9215
:1000F000A730B207E1F710E0C2E6D0E004C02197D4
:10010000FE010E946908C136D107C9F70E940D059A
:100110000C946F080C940000AF92BF92CF92DF92C4
:10012000EF92FF920F931F93CF93DF936C017B01AC
:100130008B01040F151FEB015E01AE18BF08C0173D
:10014000D10759F06991D601ED91FC910190F081B0
:10015000E02DC6010995892B79F7C501DF91CF9173
:100160001F910F91FF90EF90DF90CF90BF90AF90D5
:100170000895FC01538D448D252F30E0842F90E0AD
:10018000821B930B541710F0CF9608950197089592
:10019000FC01918D828D981761F0A28DAE0FBF2F5B
:1001A000B11D5D968C91928D9F5F9F73928F90E0B1
:1001B00008958FEF9FEF0895FC01918D828D981720
:1001C00031F0828DE80FF11D858D90E008958FEF5D
:1001D0009FEF0895FC01918D228D892F90E0805C26
:1001E0009F4F821B91098F739927089588E391E0AF
:1001F0000E94EA0021E0892B09F420E0822F089573
:1002000080E090E0892B29F00E94F60081110C9487
:1002100000000895FC01A48DA80FB92FB11DA35AA9
:10022000BF4F2C91848D90E001968F739927848F16
:10023000A689B7892C93A089B1898C918370806439
:100240008C93938D848D981306C00288F389E02DDA
:1002500080818F7D80830895EF92FF920F931F938B
:10026000CF93DF93EC0181E0888F9B8D8C8D981369
:100270001AC0E889F989808185FF15C09FB7F89475
:10028000EE89FF896083E889F989808183708064C1
:1002900080839FBF81E090E0DF91CF911F910F910C
:1002A000FF90EF900895F62E0B8D10E00F5F1F4F1B
:1002B0000F731127E02E8C8D8E110CC00FB607FC2A
:1002C000FACFE889F989808185FFF5CFCE010E94B8
:1002D0000A01F1CFEB8DEC0FFD2FF11DE35AFF4F1B
:1002E000F0829FB7F8940B8FEA89FB898081806246
:1002F000CFCFCF93DF93EC01888D8823B9F0AA8903
:10030000BB89E889F9898C9185FD03C0808186FDD0
:100310000DC00FB607FCF7CF8C9185FFF2CF80811F
:1003200085FFEDCFCE010E940A01E9CFDF91CF9189
:10033000089590E0FC01E458FF4F2491FC01E25540
:10034000FF4F3491FC01E656FF4FE491EE23C9F0D4
:10035000222339F0233001F1A8F4213019F12230A1
:1003600029F1F0E0EE0FFF1FEE58FF4FA591B49179
:100370008FB7F894EC91611126C030953E233C93E1
:100380008FBF08952730A9F02830C9F0243049F7ED
:10039000809180008F7D03C0809180008F77809353
:1003A0008000DFCF84B58F7784BDDBCF84B58F7DB0
:1003B000FBCF8091B0008F778093B000D2CF809137
:1003C000B0008F7DF9CF3E2BDACFCF93DF9360E083
:1003D0008CE00E94990160E088E00E949901C7E0EA
:1003E000D0E060E084E00E9499018091FA0190E001
:1003F0000C2E02C0959587950A94E2F761E080FF84
:1004000060E088E00E94990161E084E00E94990127
:10041000219738F761E08CE0DF91CF910C9499013E
:10042000CF93DF9390E0FC01E255FF4F2491865675
:100430009F4FFC0184918823D1F090E0880F991F91
:10044000FC01E859FF4FA591B491FC01EE58FF4F14
:10045000C591D49161110EC09FB7F8948C91E22F91
:10046000E0958E238C932881E223E8839FBFDF9160
:10047000CF9108958FB7F894EC91E22BEC938FBF56
:10048000F6CF61E08CE00E94100261E087E00E94FC
:10049000100261E088E00E94100261E084E00E94A6
:1004A00010021092FA010E94E50160E087E00C94CE
:1004B0009901FC018081823061F018F4813031F0C3
:1004C0000895833049F0843049F008956093B30073
:1004D00008956093B400089567BD089568BD0895B8
:1004E000FC018081823069F028F433E022E0813021
:1004F00051F008958330D9F036E020E0843019F0CF
:10050000089534E021E081E090E0AC0101C0440FA7
:100510002A95EAF72091FA01242B01C0880F3A9519
:10052000EAF7809582238093FA010C94E50137E085
:1005300025E0E9CFFC0101900020E9F73197AF01F8
:10054000481B590BBC0188E391E00C948C001F926E
:100550000F920FB60F9211242F933F934F935F93F7
:100560006F937F938F939F93AF93BF93EF93FF937B
:1005700088E391E00E940A01FF91EF91BF91AF9152
:100580009F918F917F916F915F914F913F912F91AB
:100590000F900FBE0F901F9018951F920F920FB6DD
:1005A0000F9211242F938F939F93EF93FF93E091DA
:1005B0004801F09149018081E0914E01F0914F0195
:1005C00082FD1BC09081809151018F5F8F732091BC
:1005D0005201821741F0E0915101F0E0E85CFE4FDA
:1005E000958F80935101FF91EF919F918F912F9162
:1005F0000F900FBE0F901F9018958081F4CF1F921F
:100600000F920FB60F9211242F933F938F939F93C6
:10061000AF93BF938091340190913501A091360141
:10062000B09137013091330123E0230F2D3758F576
:100630000196A11DB11D2093330180933401909345
:100640003501A0933601B093370180912F0190912D
:100650003001A0913101B09132010196A11DB11D6F
:1006600080932F0190933001A0933101B093320118
:10067000BF91AF919F918F913F912F910F900FBE9E
:100680000F901F90189526E8230F0296A11DB11D0B
:10069000D2CF1F920F920FB60F9211242F933F9338
:1006A0004F935F936F937F938F939F93AF93BF937A
:1006B000CF93DF93EF93FF9380912E01C091F901C7
:1006C000D0E087FF24C010928500109284008091B2
:1006D0002E018F5F80932E0180912E01082E000C39
:1006E000990B8C179D0724F480912E018C30C4F156
:1006F0008091840090918500049680349C4908F490
:100700007AC08091840090918500049676C0809193
:100710002E01082E000C990B8C179D07C4F6E09152
:100720002E018E2FEE0F990BFC01EE0FFF1FE80F2D
:10073000F91FEB52FE4F808186FFC9CFE0912E0159
:100740008E2FEE0F990BFC01EE0FFF1FE80FF91F24
:10075000EB52FE4F808160E08F730E949901B7CF0A
:100760002091840030918500E0912E018E2FEE0FB4
:10077000990BFC01EE0FFF1FE80FF91FEB52FE4F24
:1007800081819281820F931F9093890080938800CA
:10079000E0912E018E2FEE0F990BFC01EE0FFF1F43
:1007A000E80FF91FEB52FE4F808186FF11C0E091E8
:1007B0002E018E2FEE0F990BFC01EE0FFF1FE80F9D
:1007C000F91FEB52FE4F808161E08F730E94990107
:1007D000FF91EF91DF91CF91BF91AF919F918F9159
:1007E0007F916F915F914F913F912F910F900FBE2D
:1007F0000F901F90189580E49CE990938900809356
:1008000088008FEF80932E01E3CFCF92DF92EF929B
:10081000FF920F931F93E82FF92F05C00150110984
:100820002109310961F1908196239417B9F305C02C
:10083000015011092109310911F190819623941376
:10084000F7CFC12CD12CE12CF12C0AC08FEFC81AA4
:10085000D80AE80AF80A0C151D052E053F0579F09F
:1008600080818623841791F36C2D7D2D8E2D9F2DF5
:100870001F910F91FF90EF90DF90CF90089560E06F
:1008800070E080E090E01F910F91FF90EF90DF907B
:10089000CF900895CF9310923B0110923A0188EEC9
:1008A00093E0A0E0B0E080933C0190933D01A093E1
:1008B0003E01B0933F0185E091E090933901809330
:1008C000380185EC90E0909345018093440184ECDD
:1008D00090E0909347018093460180EC90E09093E4
:1008E00049018093480181EC90E090934B01809303
:1008F0004A0182EC90E090934D0180934C0186EC8C
:1009000090E090934F0180934E011092510110920C
:10091000520110925301109254011092FB0181E098
:1009200080930502C2E0C09306020E9441028091BA
:10093000FA01837F8093FA010E94E5018091B00063
:1009400083688093B000C093B1001092B30061E05F
:100950008BE00E941002C0930302C09304020E9425
:1009600041028091FA018D7E8093FA010E94E50197
:100970008091B00083628093B000C093B100109268
:10098000B40061E083E00E94100283E080930102E2
:10099000C09302020E9441028091FA018F758093F8
:1009A000FA010E94E50184B5836884BD17BC61E04B
:1009B00086E00E94100284E08093FF01C093000251
:1009C0000E9441028091FA018E7B8093FA010E947D
:1009D000E50184B5836284BD18BC61E085E00E94B6
:1009E00010028091F9018C30A0F491E0980F90935F
:1009F000F9018093FC0190E0FC01EE0FFF1FE80F6E
:100A0000F91FEB52FE4F88EB9BE092838183CF91DD
:100A100008958FEF8093FC01FACFCF93DF93CDB78A
:100A2000DEB7A1970FB6F894DEBF0FBECDBF7894A6
:100A300084B5826084BD84B5816084BD85B58260E3
:100A400085BD85B5816085BD80916E008160809394
:100A50006E001092810080918100826080938100FD
:100A6000809181008160809381008091800081600D
:100A7000809380008091B10084608093B100809168
:100A8000B00081608093B00080917A008460809390
:100A90007A0080917A00826080937A0080917A0057
:100AA000816080937A0080917A00806880937A00D8
:100AB0001092C100E0914801F091490182E08083E9
:100AC000E0914401F09145011082E0914601F091DE
:100AD000470180E1808310925001E0914C01F09138
:100AE0004D0186E08083E0914A01F0914B018081C5
:100AF00080618083E0914A01F0914B0180818860A0
:100B00008083E0914A01F0914B018081806880836D
:100B1000E0914A01F0914B0180818F7D808361E0FB
:100B200089E00E94100260E08AE00E94100261E009
:100B300085E00E9410028091FC018C3008F051C0C9
:100B400061E088E00E9410028091FC01282F30E0D3
:100B5000F901EE0FFF1FE20FF31FEB52FE4F9081E2
:100B6000907C986090831092FD011092FE012CE021
:100B7000622F0E945D08829FB001112430E020E0C6
:100B8000AB01420F531FFA01EE0FFF1FE40FF51FD9
:100B9000EB52FE4F908196FD16C02F5F3F4F2C30D9
:100BA000310571F781110FC01092800082E08093AF
:100BB00081001092850010928400B19A80916F009C
:100BC000826080936F00E091FC018E2F90E0FC0129
:100BD000EE0FFF1FE80FF91FEB52FE4F808180647C
:100BE000808343E0C42ED12C53E2252E312C6AE0C1
:100BF000862E912CA12CB12C70E0E72E70E0F72E00
:100C000088E391E00E94EA00181619066CF488E364
:100C100091E00E94C800813339F484E5809300019B
:100C200083E191E00E949A0260E089E00E949901CC
:100C3000C6010197F1F761E089E00E949901C101C5
:100C40000197F1F760E089E00E949901E8EBF0E09C
:100C50006491E4EAF0E08491E82FF0E0EE0FFF1FEA
:100C6000E057FF4F8591949100E412E42FE030E0CB
:100C7000462F0E940504611571058105910529F033
:100C80006F5F7F4F8F4F9F4F9F709595879577959B
:100C900067950E94D1072DEC3CEC48EE51E40E9490
:100CA00027070E9499072B013C018BE191E00E94EC
:100CB0009A0277FE94C06DE288E391E00E942C01D5
:100CC00022273327A901241935094609570919A2F2
:100CD0008E010F5D1F4FCA01B901A50194010E9449
:100CE0000507605DF80162938F012115310541050B
:100CF000510589F70115110519F0C8010E949A02E2
:100D000087E291E00E949A028BE291E00E949A02AF
:100D100080910001843509F056C085E092E00E9480
:100D200070026FEF85E092E00E94590283E092E04A
:100D30000E9470026FEF83E092E00E94590281E00E
:100D400092E00E9470026FEF81E092E00E945902EF
:100D50008FEF91E00E9470026FEF8FEF91E00E94A1
:100D60005902FAE04F1651046104710464F561E020
:100D70008DE00E94990185E092E00E94700260E09F
:100D800085E092E00E94590283E092E00E947002A6
:100D900060E083E092E00E94590281E092E00E94CC
:100DA000700260E081E092E00E9459028FEF91E0D2
:100DB0000E94700260E08FEF91E00E94590261E0B2
:100DC00085E00E949901E114F10409F419CF0E9411
:100DD000F600882309F414CF0E94000011CFA3016C
:100DE000920119A28E010F5D1F4FCA01B901A50121
:100DF00094010E940507605DF80162938F0121153F
:100E000031054105510589F775CFA1E21A2EAA1BBC
:100E1000BB1BFD010DC0AA1FBB1FEE1FFF1FA217AA
:100E2000B307E407F50720F0A21BB30BE40BF50BA7
:100E3000661F771F881F991F1A9469F76095709530
:100E4000809590959B01AC01BD01CF0108950E9452
:100E50003B070C9423080E941C0858F00E941508B8
:100E600040F029F45F3F29F00C940C0851110C94C8
:100E700057080C9412080E94340868F39923B1F3C0
:100E8000552391F3951B550BBB27AA2762177307B0
:100E9000840738F09F5F5F4F220F331F441FAA1F44
:100EA000A9F335D00E2E3AF0E0E832D09150504000
:100EB000E695001CCAF72BD0FE2F29D0660F771FAE
:100EC000881FBB1F261737074807AB07B0E809F094
:100ED000BB0B802DBF01FF2793585F4F3AF09E3F19
:100EE000510578F00C940C080C9457085F3FE4F31C
:100EF000983ED4F3869577956795B795F7959F5F5C
:100F0000C9F7880F911D9695879597F90895E1E0A7
:100F1000660F771F881FBB1F621773078407BA0706
:100F200020F0621B730B840BBA0BEE1F88F7E09561
:100F300008950E94A0076894B1110C945708089571
:100F40000E943C0888F09F5798F0B92F9927B75115
:100F5000B0F0E1F0660F771F881F991F1AF0BA955D
:100F6000C9F714C0B13091F00E945608B1E008955D
:100F70000C945608672F782F8827B85F39F0B93F4F
:100F8000CCF3869577956795B395D9F73EF4909510
:100F90008095709561957F4F8F4F9F4F0895E8948E
:100FA00009C097FB3EF490958095709561957F4FB1
:100FB0008F4F9F4F9923A9F0F92F96E9BB2793955F
:100FC000F695879577956795B795F111F8CFFAF46F
:100FD000BB0F11F460FF1BC06F5F7F4F8F4F9F4FA0
:100FE00016C0882311F096E911C0772321F09EE8FE
:100FF000872F762F05C0662371F096E8862F70E064
:1010000060E02AF09A95660F771F881FDAF7880F3D
:101010009695879597F9089597F99F6780E870E00E
:1010200060E008959FEF80EC089500240A9416165E
:10103000170618060906089500240A9412161306C6
:10104000140605060895092E0394000C11F4882354
:1010500052F0BB0F40F4BF2B11F460FF04C06F5F70
:101060007F4F8F4F9F4F089557FD9058440F551F46
:1010700059F05F3F71F04795880F97FB991F61F01A
:101080009F3F79F087950895121613061406551F91
:10109000F2CF4695F1DF08C0161617061806991FFD
:1010A000F1CF86957105610508940895E894BB27F2
:1010B00066277727CB0197F90895991B79E004C03B
:1010C000991F961708F0961B881F7A95C9F7809587
:1010D0000895EE0FFF1F0590F491E02D0994F89408
:1010E000FFCF46000000002C018C00B9007901EA16
:1010F00000C800DC00574F524B494E47000A446974
:101100007374616E63653A200020636D000D0A0000
:107E0000112484B714BE81FFF0D085E080938100F7
:107E100082E08093C00088E18093C10086E0809377
:107E2000C20080E18093C4008EE0C9D0259A86E02C
:107E300020E33CEF91E0309385002093840096BBD3
:107E4000B09BFECF1D9AA8958150A9F7CC24DD24C4
:107E500088248394B5E0AB2EA1E19A2EF3E0BF2EE7
:107E6000A2D0813461F49FD0082FAFD0023811F036
:107E7000013811F484E001C083E08DD089C08234E0
:107E800011F484E103C0853419F485E0A6D080C0E4
:107E9000853579F488D0E82EFF2485D0082F10E0AE
:107EA000102F00270E291F29000F111F8ED06801E7
:107EB0006FC0863521F484E090D080E0DECF843638
:107EC00009F040C070D06FD0082F6DD080E0C81688
:107ED00080E7D80618F4F601B7BEE895C0E0D1E017
:107EE00062D089930C17E1F7F0E0CF16F0E7DF06D8
:107EF00018F0F601B7BEE89568D007B600FCFDCFD4
:107F0000A601A0E0B1E02C9130E011968C91119780
:107F100090E0982F8827822B932B1296FA010C0160
:107F200087BEE89511244E5F5F4FF1E0A038BF0790
:107F300051F7F601A7BEE89507B600FCFDCF97BE46
:107F4000E89526C08437B1F42ED02DD0F82E2BD052
:107F50003CD0F601EF2C8F010F5F1F4F84911BD097
:107F6000EA94F801C1F70894C11CD11CFA94CF0C13
:107F7000D11C0EC0853739F428D08EE10CD085E9AC
:107F80000AD08FE07ACF813511F488E018D01DD067
:107F900080E101D065CF982F8091C00085FFFCCF94
:107FA0009093C60008958091C00087FFFCCF809118
:107FB000C00084FD01C0A8958091C6000895E0E648
:107FC000F0E098E1908380830895EDDF803219F02E
:107FD00088E0F5DFFFCF84E1DECF1F93182FE3DFCA
:107FE0001150E9F7F2DF1F91089580E0E8DFEE27F6
:047FF000FF270994CA
:027FFE00040479
:00000001FF
